:4000000000800020110000008D1100008D11000008B5054B1A6803F53F5302331A6000F0A5F801F0BBF800BFFA46004010B5054C237833B9044B13B10448AFF30080012359
:40004000237010BD9081FF1F00000000A43C0000084B10B51BB108490848AFF300800848036803B910BD074B002BFBD0BDE81040184700BF000000009481FF1FA43C0000B8
:40008000C880FF1F0000000000470023014422B1013A885C0344DBB2F9E71846704701380B284FD8DFE800F0060C12181E24302A363C42480902C1F57F3101F5707147E0E3
:4000C0000902C1F57F3101F2C13144E00902C1F57F3101F2C53136E00902C1F57F3101F2C93138E00902C1F57F3101F574712FE00902C1F57F3101F2D13129E00902C1F515
:400100007F3101F2D6311EE00902C1F57F3101F2D23118E00902C1F57F3101F5757112E00902C1F57F3101F5767114E00902C1F57F3101F577710BE00902C1F57F3101F596
:40014000787108E000210B78487843EA002070470878C0B270470B784A788878000440EA02201843CB7840EA0360704710B50B4A137803F0C003802B0ED100241470214632
:400180000220FFF78CFF38B121460220FFF787FFBDE81040FFF778BF10BD00BFFA460040F8B5014606460320FFF779FF314605460420FFF774FF013500EB0525314603207B
:4001C000FFF76DFF0024274601300002854209D910F8013B5A1ED2B2FD2A1C4498BF0127E4B2F3E731460320FFF759FF114B01309D424FEA00204FEAD00014BFED084FF4B9
:400200000045A84206D200F190431B7801301C44E4B2F6E731460120FFF741FF6442E4B2844204D1002F0CBF06200020F8BD0620F8BD00BFC0FF03002DE9F04FADF51F7DD3
:40024000804602F0E9F910B1002002F0D1FA00F08FFC62B6B8F1000F18BF43464FF000052E4608BFFF23DFF8ECB200934FF00A09B84B1B794BB1012B0FD1009B02AA4FF477
:40028000967108A800F03CFD06E0009B02AA4FF4967108A800F0AFFC0746B8F1000F03D009F1FF395FFA89F9B9F1000F02D0002FDED101E0002F4AD1BDF80820062A40F2E4
:4002C000DB819DF82030012B40F0D681BDF82270FB1D934200F2CD81B3F5967F00F2C98108AB3B449B79172B40F0C6813B1D9BB200220DF11F012BB1C85C013B024492B2F3
:400300009BB2F8E708ABD91948790B79524243EA002392B2934240F0B28120E05B429BB209AA13551B0A0DF1250213550DF1260317221A559BF80430002B40F08E81E11D92
:4003400096230DF10A0289B208A800F041FCB8F1000F8DD0002E00F0DA81012688E79DF821309DF82440A3F131020B2A00F2FC80DFE812F02E003F00FA006400A000FA0007
:40038000A400B7006400C800E4000C00002E00F07381012F40F07081002C40F011812046FFF7FEFE002840F00E81DFF8B8E109AFBEE80F000FC7BEE80F000FC7BEE80F0043
:4003C0000FC7A2469EE80300382487E803002AE1002E00F05181002F40F04E813846FFF7DFFEB0FA80F040098DF82400BA46344619E1002E00F04081012F40F03D81032CC2
:4004000000F23A81544B1B681B68C3F30742944202D1C3F3072303E08CBF00234FF480738DF824301B0A00278DF82530FF238DF826308DF82770BA460424F4E0342B12D105
:40044000002E00F01981032F40F01681A4F140033F2B8CBF4FF4907510252A46002153A803F013FC05E0002E00F00681022F40F2038153AB033F3A4658190DF1270103F078
:40048000F9FBA4F140032F443F2BBFB204D802F073F98022102303E04FF480724FF49073BB4240F09380BDF82550AA4200F29380012640E0002E00F0DF801FE1002E00F078
:4004C000DB807C19B4F5967F00F3D38053AB58193A4609A94FF0000AA5B203F0CBFB5446A1E0002F40F0C8801C4A05AB92E8030009AA83E8030082E803003D460126BA4681
:40050000082490E0002E00F0B780032F40F0B480A4F140023F2ABDF825A008D802F02CF9BAF17F0F4FEA0A1140F2B18003E0BAF1FF0F40F2B8804FF00A0A73E00020FFF7D1
:400540002FFE10B9064A8023137000F031FB02F051F991E0AC81FF1FCC80FF1FA83C0000FA460040C0FF0300DBF80040002C54D0002E55D0ADF80E700DF1240A00278DF8BA
:400580000C30CDF810A005970697CDF81CA005A903A8A047BDF81840B4F5937F02D3079A524505D0079A02B934B99DF814A03AE04FF00E0A3C4636E04FF00E0A144632E088
:4005C0004FF00C0A2EE04FF00C0A2CE0002501264FF0030A1FE03F2C0ED84F4A05EB0421126889B21068C0F30F2210F0FF0F1CBF013292B28A4245D8294653AA204602F083
:4006000055F800280CBF4FF0000A4FF00A0A02F017F9002501262C4605E04FF0050A02E04FF0050A00240122230A271D8DF820208DF82330ADF80A408DF821A08DF822404A
:40064000BFB200230DF11F02002F3FF467AED15D013F0B449BB2BFB2F6E7012B7FF477AEE11D96230DF10A0289B208A800F012FB6DE64FF0030AD5E74FF0040AD2E74FF0EB
:40068000080ACFE7002501264FF00A0AC3E710222248FFF7FAFC024652428DF824204FF0000A0124BFE7270207EB0A014FF4807209020020FFF7E9FC3F2C0246ECD807F118
:4006C000107757447F010021C85D013102442029D2B2F9D1032CDFD1BAF1FF0FDCD1002105200192FFF7DBFC019A0021101AC4B20620FFF7D4FC201AC2B2CDE7B8F1000FB6
:4007000002D145464746B3E500252F4625E60DF51F7DBDE8F08F00BFCC80FF1F0080004038B50020FFF73CFD154C0021236800281A68084614BF06250025FFF7A6FC63681F
:400740001B78181A00F0FF00834202D123681B6813B9002002F04CF80A4C237803F0C003402B00D01DB100202070FFF765FD2820FFF762FD80232370BDE8384002F03AB871
:40078000CC80FF1FFA460040134B00221A70134A11790A2904D00B2906D001290CD107E0197841F0010106E0197841F001011970197841F0020119705279012A0BD11A78B6
:4007C00042F004021A701A7842F008021A701A7882F001021A7070477B650040C881FF1F2DE9F84302F0FCFF04460146304803F003F902F031FC06460F4602F041FA804627
:4008000089463046394602F0B3F906460F4600F0D7F825A1D1E9000142464B4602F09AFD02F008FF02F0DCFF214603F0E5F84FF07E5102F023FF32463B4620F000451AA1AB
:40084000D1E9000102F086FD02F0F4FE02F0C8FF214603F0D1F84FF07E5102F00FFF20F00041284603F0B2F910B14046494601E03046394602F0DEFE0E4B84B2B3FBF4F082
:40088000B3FBF0F000EB400080080338C0B201F0B5FE601E012180B200F0DCFCBDE8F84300F080B8AFF300800000000080845E410024F44A0090D003104C08B500254FF4F9
:4008C000E13323602571657101F08AFE00F02FFD01F046FE38B1032309482A46194600F0D4FA284600E0012001F034FE2068FFF777FFFFF749FFFFF713FFFEE7C881FF1F26
:40090000D480FF1F08B51049002001F0BBFF0721002001F0C5FF0D4B00221A700C4B72221A702022DA700B49012001F0ABFF0721012001F0B5FF084B06221A7047221A7468
:40094000022203F8A12C08BD9D0D0000B181FF1F886500402D0E00002A65004008B502F0D7F80C4A0C49137843F020031370D37843F01003D370094A012313600B7843F094
:4009800010030B70064902230B601360BDE8084002F0C2B8986500409964004000E100E080E200E010B5054C63781BB9FFF7AAFF01236370BDE81040FFF7D0BFB181FF1F5C
:4009C00008B502F0A5F80B4A0B49137803F0DF031370D37803F0EF03D370084A012313600B7803F0EF030B7002231360BDE8084002F092B8986500409964004080E100E064
:400A00000F4B01221A600F4A9378D1781079DBB2C9B208B98B420BD00B49C85C0133DBB293701379C0B233B1064B00221A7102E0064B1878C0B2064B01221A60704700BF63
:400A400080E100E0B181FF1FD081FF1F4865004000E100E00A4B01221A600A4A9178D378994202D11379002005E09178D378D3789078181AC0B2044B01221A60704700BF42
:400A800080E100E0B181FF1F00E100E008B502F03FF80B4B1A7842F001021A701A7802F0FE021A7002F038F8064B01211960064B00229A70DA701A715A71044B196008BD91
:400AC0009865004080E100E0B181FF1F00E100E010B5124CE379A279D2B2934202D2511E994201E0991AFF2914BF002101210029F1D193420A4A05D11178490702D4094B97
:400B0000187010BD0849C8540133E37113789B0742BF064B02221A6010BD00BFB181FF1F6964004049640040D085FF1F00E200E008B501F0EDFF0A4B1A7842F001021A7003
:400B40001A7802F0FE021A7001F0E6FF054A02231360054A00219171D171044A136008BD9964004080E100E0B181FF1F00E100E010B562B640F2D1740221002000F0DEFC80
:400B80000A4B01221A7000F06BFD30B9013CA4B21CB1012001F036FEF5E7FFF703FFFFF775FFBDE81040FFF7C3BF00BFBA81FF1F08B5FFF705FFBDE8084000F0F7BC08B585
:400BC000FFF764FFFFF7B4FFBDE8084000F04EBEF8B50E4604461746FFF758FF731E651E1C44A54204D015F8010FFFF771FFF8E73E800020F8BD2DE9F84F804689461646A3
:400C00000A245C430025ABB2A34213DAFFF722FF013558B1FFF71EFF0446642001F008FEFFF718FF8442F5D3002704E0012001F0E9FDE8E7052700243480FFF70BFF30B311
:400C4000FFF708FF328885B2AB189BB24B4533801CD24FF0000B1FFA8BF304EB030A9D421FFA8AFA06D9FFF7CBFE0BF1010B08F80A00F0E72C44A4B208EB040313F8013C5D
:400C8000172BDAD0012001F0BDFDD6E732803846BDE8F88F2DE9F843002480460F461646A14603EB830314805D00B94522D2C9EB0702402A94BFD2B2402294B2224608EB38
:400CC0000901022000F0FAFC022000F0DBFC30B92DB10120013D01F095FDADB2F4E7022000F0D0FC48B1338823444C4433801FFA84F9DAE70020BDE8F8831020BDE8F883F3
:400D00002DE9F84303EB83035C00234B17461A78804689461E46A2B1254600F0A1FC30B92DB10120013D01F06DFDADB2F5E700F097FCA8B100F09AFCFFF741FF00233370D7
:400D40000EE000F093FC58B100F08AFC40B1FFF736FF05E04CB1012001F054FD013CA4B2032000F08FFC0128F4D1032000F08AFC01280BD14A46402A28BF4022414603207C
:400D800000F0EEFC38800020BDE8F88300233B801020BDE8F88300BFBA81FF1F2DE9F0431A481B4C024625461A4E1B491B4FDFF874E0DFF874C03378DBB213F01E091EBFAB
:400DC00091F8008049EA080881F800809B061AD597F8008003785FFA88F8DBB20EF80380237813B101238CF8003013780133DBB2137013780A4B92F800801B789845DAD19A
:400E000001232B70D7E7BDE8F08300BFB481FF1FB581FF1F6B650040B181FF1F48650040B381FF1FD081FF1FB681FF1F70B50C4B0C480D490D4C0E4D1A78067896420DD0B5
:400E40000A7852070AD41A781A78D2B2A25CD2B22A701A780132D2B21A70EDE770BD00BFB781FF1FB881FF1F69640040D085FF1F49640040421E41F2055012F8013F1BB14A
:400E800000EB40105840F8E770472DE9F34707460E4614460025601980B200F04AFA0DF805000135052DF6D19DF800300534A4B2002B65D19DF80130C02B61D19DF80230E2
:400EC000FF2B5DD19DF80330EE2B59D107EB0616B4F5006F54D20025601980B200F029FA0DF805000135052DF6D19DF800109DF80150DE299DF802909DF803A001D1AD2D8A
:400F000001D0B8460CE0B9F1BE0FFAD1BAF1EF0FF7D135E098F80030012B04D008F11008B045F7D125E0D8F80400FFF7A3FFC3B28B42F3D1C0F30723AB42EFD1C0F30743A2
:400F40004B45EBD1BAEB106FE8D105340023A4B29DF80420DDB2E018AA4280B203F101090CD9D8F808A000F0E4F94B460AF80500EEE79DF8040005300444A0B20446A7E763
:400F800002B0BDE8F0870000F8B572B6694B61221A700122A3F5F0631A80674A18231F2113705180137146F2A712644B644E1A801B229A70062283F87822522203F5BC7316
:400FC0001A70604B604A1B781925DBB2137040F618025E4B00241A8041F2512223F8022C33784FF4F07003F0010343EA440401F087FD013D04F0030421D0032CF0D1544BA3
:401000004FF480721A8007221A70524A002448211470917002221C705C7103F8032C4E4A4E4D1378062643F007031370414B01221A704B4A137843F00403137000E0FEE754
:4010400006FB045300219A881868013402F01DFE092CF5D180224349434802F00BFE00221146424C04F1700554F8210005EB420320F0FF06C0B2024405EB420001330330EB
:401080000233834206D013F8037C13F802EC07F806E0F5E701311C29E6D1354A35491378354C43F002031370137C43F002031374A2F58632633A137843F0400313700B78E9
:4010C00043F010030B702D4B1868596803C418461989C83CA4F8C81050F80A1F44F81E1C4168184644F81A1C50F8121F44F80E1C416853F81A0F44F80A1C59681B8903C44D
:401100001F4923800B78A4F6885443F008030B701C4B01F5AA511B780C31DBB203F007001B0908704B70184B442119700FCA07C42380F8BD0048004082400040884000400D
:40114000254200400F010049A1460040224200400440004006400040A2430040CC3C0000E8460040023D000000180140843D000003500140C2430040F051004038420000D2
:4011800022430040CF0100497658004008B502F045FD03680C2B00D1FEE7FEE780B51148114B0025C0B1A3F1100192C922460439161BB74204D051F8046F42F8046BF7E7CF
:4011C000114653F8046C8C1AA64202D041F8045BF9E701381033E5E702F026FDFFF76CFBFEE700BF010000003C440000104A114B10B41A60104A114C1368114843F40073FD
:4012000013600023032B98BF54F823204FEA830188BF0C4A0133302B4250F3D10A4B1A780A4B1A700A4B064A10BC1A60FFF7ACBE0004FA050CED00E014ED00E000000000F7
:401240000080FF1F8D110000BC760040C080FF1F08ED00E0F0B52C4D2C4E2F78348807F00707A4B2A0424DD0294B1A78D2B26FB934B158B92B7843F040032B703080F0BD7F
:4012800030802B7803F0BF032B70F0BD02F0020202F0FF060AB31F4F1F4A00254FF0020E157087F800E03D7117F8085C05F07F0507F8085C144D2D782D0700D568B9174D74
:4012C0002C8007241470147814F00104FBD11A7802F0FD021A70104A14701B780C4A9C070BD50E4B0029188014BF03220122013B1A701A78D207FCD4F0BD044B1880137886
:4013000033431370F0BD00BF8640004084400040A243004010400040014000400240004008B501F079F9BDE8084001F025BAFFF7F7BF38B5044601F0EBFB054601F044FA75
:4013400004F1804303F500431C7801F049FAE4B2284601F0E1FB204638BD0000F8B501F0D7FB404A02251378012743F001031370137C3D4C43F0010313743C4B02F5E3526F
:401380001F700B3203F8945C1378064603F07F031370002001F04CFA2378354A03F0F90323701378384603F0DF03137023783B43237001F03DFA282001F03AFA2D4B28462C
:4013C0001A7802F07F021A701A7802F0BF021A7023782B43237001F02BFA2378264A43F004032370002313703046537001F094FB0721172001F054FA2049172001F042FA3B
:401400000721182001F04CFA1D49182001F03AFA0721152001F044FA1A49152001F032FA2846072101F03CFA1749284601F02AFA0721032001F034FA1449032001F022FA7A
:401440000721042001F02CFA1149042001F01AFA07210C2001F024FABDE8F8400D490C2001F010BAA5430040944300409D60004012600040F851004084600040CF1D000042
:40148000F91B0000CD1D0000391D0000651D0000951D0000D31D000008B51C4B1C4A1870002313701B4A13701B4A13701B4A13701B4A13701B4A13701B4A13701B4B4FF4E3
:4014C00000021A604FF080721A604FF400121A6004221A6008221A6010221A60144B19B91A7802F0FE0202E01A7842F001021A70104B03221A70802203F8202C012001F019
:40150000FFFA0D4B04221A7008BD00BFE189FF1FE489FF1FFC89FF1FFF89FF1FF489FF1FFE89FF1F018AFF1FE089FF1F00E100E009600040286000401260004070B5074CFE
:40154000054623780E461BB9FFF708FF0123237031462846BDE87040FFF79EBFBB81FF1F0A4A002313700A4A13700A4A13700A4A13700A4A13700A4A13700A4A13700A4B69
:4015800003221A70802203F8202C7047E489FF1FFC89FF1FFF89FF1FF489FF1FFE89FF1F018AFF1FE089FF1F2860004008B501F0AFFA214A137803F07F031370937A03F08B
:4015C000FB039372A2F5E352033A137803F0FE031370137C03F0FE031374184B1A7842F080021A701A7842F040021A7001F094FA134B4FF400021A604FF080721A604FF486
:4016000000121A6004221A6008221A6010221A6000F0FAFF0B4B4FF480521A600A4A002313700A4A13700A4A13700A4A13700A4A13700A4A137008BD08600040F85100403D
:4016400080E100E080E200E0FC89FF1FFF89FF1FF489FF1FFE89FF1F018AFF1FBB81FF1F014B1878704700BFFF89FF1F044B1A7802F0FF001AB118780022C0B21A70704761
:40168000FC89FF1F024A0C2303FB002040787047028AFF1F431E072B0CD8074A064B00010344805C5B7800F00F0043EA0020023880B2704700207047FC5F0040431E072B51
:4016C000F0B531D8194B0C2505FB0035EC88184FA4B2C4F50074A2424FF00C0404FB003488BFEA88E67884BFC2F5007292B2104C46EA12260501EE552C44D6B2667041B912
:401700000C2202FB0030002343704379DBB2A370F0BD0E46074F2F44751AADB2AA42EFD916F8015B3D72F7E7F0BD00BF028AFF1FFC5F004070600040431E072B0AD8064A33
:401740000C2303FB002300225A705A79034BD2B200011A54704700BF028AFF1FFE5F004038B505461446D1B1431E072B19D8FFF791FFA04203D22846FFF78CFF04460A46FE
:4017800009482B011844531A9BB29C4203D9037A02F8013BF7E72846FFF7CEFF02E00C4600E00024204638BD7060004070B5094C094DFF2100230C26E25C06FB0252927A93
:4017C000824204BF194602230133DBB2012BF3D0084670BDD489FF1F028AFF1F10B51E4C2079FFF7E3FF237813F0800F63780DD0212B2ED1BDE81040184B07221A80184A41
:40180000C0EBC0001044586000F04CBADBB2202B0ED0222B1DD1A378124A22F81030124A135C43F002031354BDE8104000F01AB90A4A07230A491380C0EBC0030B44536083
:40184000094A135C43F001031354BDE8104000F04FBA002010BD00BF00600040E889FF1F0481FF1FDC89FF1FD089FF1F10B5164A00231370154A164C137053702078C0B2C6
:40188000431E072B01D8FFF757FF6078C0B2431E072B01D8FFF750FF0E4A13788BB123787BB10D4B197861B11278082A09D8084A1278082A05D81878082894BF00200120B8
:4018C00010BD012010BD00BFBC81FF1FD089FF1FD689FF1FD289FF1FD489FF1FC37890F9020003F0030300280FDA032B15BF0C480C4802F00103C2F3800319BFC15442F064
:401900000102C15442F0040207E0032B1FBF0648C2F34003C15442F002021046704700BFD289FF1FD489FF1FD689FF1F30B51A4A1A491B4D0878138803449BB21380194ADD
:4019400000231488D8B2A4B27CB1082B0CD050680078C0B2E85450680133013050601088013880B21080ECE718460B780E4C082B0E4A00D040B10E4D2B7883F080032B7065
:401980000F232370022301E0022323701370094B1870087030BD00BFE289FF1FE089FF1F00600040E889FF1FFD89FF1FE489FF1F708AFF1F008AFF1F074B02221A70074BA1
:4019C00080221A70064B0F221A70064A00231370054A012013707047E489FF1F708AFF1FFD89FF1FE089FF1F008AFF1F30B5164B16491B780A8803F00F03023BDBB21A44A2
:401A000092B20A80124C134A0020118889B279B173B15568215C013BC9B229705168DBB20131516011880130013989B21180ECE7094A1370094A137883F080031370084B05
:401A40000B221A7030BD00BF29600040E289FF1F00600040E889FF1F008AFF1F708AFF1FFD89FF1F064A06231370064A01201370054B80221A70054B00221A70704700BF40
:401A8000E489FF1FFD89FF1F708AFF1F008AFF1F054B9A683AB19A68044910709A680988518000229A607047E889FF1FE289FF1F08B5124B1A78D2B21A701B78DBB21A06E2
:401AC00002D50F4A137008BD0220FFF7E1FF0D4B1B7803F06003202B05D0402B06D043B900F0E8FB04E001F01BF801E000F01CFD10B9034B03221A7008BD00BF2860004021
:401B0000FD89FF1F0060004008B5084A084B0120197813880B449BB21380064B00221A70FFF7B6FF044B03221A7008BDE289FF1FE089FF1FE489FF1FFD89FF1F08B50C4BC5
:401B40001B78DBB2042B07D0062B09D0022B0DD1BDE80840FFF7D8BFBDE80840FFF746BF0320FFF795FF034B03221A7008BD00BFE489FF1FFD89FF1F08B5054B002201201B
:401B80001A70FFF785FF034B03221A7008BD00BFE489FF1FFD89FF1F08B50A4B1A7832B11A78094942F080020A7000221A70074B002201201A70FFF76BFF054B03221A70AE
:401BC00008BD00BFFE89FF1F08600040E489FF1FFD89FF1F074B1B78DBB2042B05D0062B05D0022B05D1FFF7A1BEFFF7C5BFFFF7D3BF7047E489FF1F38B51D4C2378DBB24F
:401C0000DD0634D518060AD503F00F03012B2ED1FFF74EFF174B1B78190609D538BD5A0602D5FFF7D7FF03E09D0620D5FFF786FF23781B061BD4104B1A78104B1B7813438C
:401C40000F4A13701278934211D10A4A0849154613782078DBB2000605D41378DBB20B700B7803F00F0328788342F1D138BD38BD28600040FD89FF1F708AFF1F008AFF1F60
:401C800029600040054A00231380054A916819B191680B7092685380704700BFE289FF1FE889FF1F0E4808B503889BB213B9FFF783FE13E00B4B02221A700B4B00221A704E
:401CC000FFF7E0FF094AD1799379028843EA012392B2934238BF0380FFF728FE012008BDE889FF1FE489FF1F708AFF1F0060004008B50C4B04221A700B4B80221A70FFF7E8
:401D0000C1FF0A4A0120D179937943EA012308490A8892B2934238BF0B80064B0B221A7008BD00BFE489FF1F708AFF1F00600040E889FF1FFD89FF1F084B01221A700F3BFD
:401D40009B7C074B1A7B02F00302012A1EBFDA7B82F08002DA7301225A7370470B600040028AFF1F094B02221A700F3B93F82230074B1A7E02F00302012A1EBFDA7E82F0F8
:401D80008002DA7601225A76704700BF0B600040028AFF1F0B4B04221A700F3B93F83230094B93F8242002F00302012A1EBF93F8272082F0800283F82720012283F82520C9
:401DC000704700BF0B600040028AFF1F7047FFF7C7BB00F019BC000070B50446184B88B003AA03F11006154618685968083303C5B3422A46F7D11B782B70FCB122232370E4
:401E000001AD03232846637000F054FD002220461146AB5C08AC04EB131414F8144C03F00F03847008AC234413F8143C0132082AC1700371417100F10400EAD108B070BD70
:401E40005C4200002DE9F0411A4D01222E460C2080274FF0080E184B00FB025C14012344187016499CF805802144B8F1000F07D09CF8044024064CBF887081F802E000E0EB
:401E80008F7000FB0261CC880132E4B29C71CC88092AC4F30724DC71CC88E4B21C71C988C1F307215971D6D1054BFF221A70BDE8F08100BF028AFF1F70600040FC5F0040AB
:401EC0000A600040064B074A1B7802EBC30253681A7C824286BF03EBC003586900207047E189FF1FAC4200002DE9F84F424B1A78002A7ED01878414D0138C0B2FFF7E2FFA4
:401F0000A8463F4AC3681478007ADFF800C1E4B203EBC0000C2600274FF0010E834268D01A78A24263D11CF80420597891425ED19A7893F8039002F07F0206FB02FA05EB34
:401F40000A01CF7093F802B009F0030981F804B093F803B005F80AB0B3F804A0A1F808A093F902A0BAF1000F0BDAB9F1010F0CBF4FF007094FF00D0981F8059081F801E0C5
:401F800009E0B9F1010F0CBF4FF005094FF0090981F805904F704FEA02191A4906FB0282494481F802E0B2F808A0CAF3072A81F800A0B2F808A05FFA8AFA81F801A0B2F8D8
:401FC00006A011495FFA8AFA494481F806A0B2F80690C9F3072981F80790B2F806905FFA89F981F80490D288C2F307224A71083394E7BDE8F88F00BFFF89FF1F028AFF1F10
:40200000F489FF1FFC5F0040706000406E8AFF1F08B5064B18780138C0B2FFF753FF20B143681B7900EBC300406908BDFF89FF1F2DE9F74F00210B46544E0C2707FB01F546
:4020400001317219092973554FF000049370DFF83C91D3701381937253705371EED128B14B4A4C4B14701C7054705C704A4B1A78002A00F08880187801270138C0B2FFF756
:4020800021FF80464368057ADB79ED0013F0400F424B4FF0000C1A784FF00C0A14BF42F0010202F0FE021A700AFB0796D8F80C40FBB204EB050B5C453AD0A07800F07F019D
:4020C000B94233D13189B4F804E089B2714538BFA6F808E021782E4A94F801E0515C8E4524D13071E178317094F90200E178002801F0030106DA01290CBF07210D21717189
:40210000012105E001290CBF05210921717100217170A17901F0F701022907D16246194620460193FFF7DAFB8446019B0834C2E70137092FB8D1D8F80C200A35931C154416
:402140000C210833AB4209D013F8082C13F80A0C02F07F0201FB02929072F2E7FFF758FF0F4B0122186000230C2000FB0291CB80098901320B44092A9BB2F6D103B0BDE8D6
:40218000F04FFFF75FBE03B0BDE8F08F028AFF1F6E8AFF1FE589FF1FFF89FF1F018AFF1FF889FF1F114B1B7903F07F035A1E072A19D80F490C2202FB031291781B0141F0CF
:4021C000010191700021D170517841F002015170127912F0800F074A1A4414BF8D2389239370FFF73FBC0020704700BF00600040028AFF1FFC5F004030B4194B1A7902F086
:402200007F02531E072B27D8164B0C2404FB02339978154D01F0FE0199700021D97029461201505D114400F07F0050555A7802F0FD025A701A795B78120605D5012B01D165
:402240008C7006E00D2303E0012B0CBF082309238B7030BCFFF706BC002030BC704700BF00600040028AFF1FFC5F004010B50D4B0D4C21791878C9B20138C0B2FFF722FE39
:4022800043681B798B4201D2022909D8074A0848535CDBB24354A3780120DBB2535410BD002010BDFF89FF1F006000406E8AFF1FE589FF1F38B58A4A8A4C13780021DBB2DD
:4022C00021801806517840F18D800A2900F20681DFE811F05D00040104010401040104010B0004017E0004018200D3787C49012B09D17D4B1A787D4B03EBC2035B685B68A8
:402300006360122310E0CB78022B12D18878FFF7D9FD002800F0E280436863606368DA7863689B7843EA02232380BDE83840FFF7B9BCCB78032B26D16D4B00228878D5B26D
:40234000854209D3664A91786A4AEE2908BF1346634A917881B106E0187801320028F1D018780344EAE764499278097C914203D16248FFF731FD614B1A78002A00F0AE80BD
:402380001A78228018E0BDE8384000F0C9BB13F0030313D0022B40F0A1802380504B0C211B7903F07F02564B01FB02339A78554BD2B21A7000225A706360B6E702222280DF
:4023C000514A11784F4AC9B2117053706260ACE7012323804D4BEFE70123238013794C4A1344E9E701390A2978D8DFE801F037774F77067777770A7720009378454ADBB2AB
:402400005AE0937803F0FF0153B9404B1A78914260D01970404B01201870FFF709FE59E0481EC0B2FFF74EFD0028EED156E0FFF71DFF002852D02A4A384913791279DBB21A
:40244000D2B20A70364A3249D25CCB5C9A4241D0314B01221A70FFF747FD3BE003F00303012B2BD009D3022B38D11D4B9B78002B34D1BDE83840FFF7BFBE194B9B78012B93
:402480002CD1214A137803F0FD0315E003F00303012B13D008D3022B20D1114B9B78EBB9BDE83840FFF77EBE0D4B9B78012B15D1154A137843F0020313700BE0084B1A79EB
:4024C000012A0BD898781B791649DBB2CA5C22EA0002CA54BDE83840FFF7C4BA002038BD00600040E889FF1FE189FF1FAC4200001043000098420000F2430000758AFF1F22
:40250000028AFF1FBD81FF1F018AFF1FFF89FF1F6E8AFF1FFE89FF1FFC89FF1FF489FF1FE589FF1F718AFF1F074B1A78120609D55B78012B06D1054B054A5A6012781A807B
:40254000FFF7B0BB0020704700600040E889FF1F70420000014B1870704700BF79640040014B1878704700BF69650040024A137843F080031370704778640040034A0449FE
:402580001378DB0601D50B78FAE77047686400405864004010B5104A104C137803F0C00343F008031370237843F001032370142302F8703C02F8303C002302F8503C137461
:4025C00000F0A6FA237843F01003237000F0A4FABDE81040FFF7D2BF786400409864004010B5054C23781BB9FFF7D4FF01232370BDE81040FFF7BABFBF81FF1F014B1870DA
:40260000704700BF48640040024B1878C0F38010704700BF8F45004070B500F083F900F021FA08B104243AE000F056FA0728044610D11C4D2A781B4B900703D4012000F06D
:40264000F7F8F7E71A78910704D51B789B0814BF0724002400F026FA0CBB00F063F900F001FA0028DED1012000F0E2F907280AD10C4D02210C4800F067F90228094E05D0E1
:402680002B789B07F5D54FF0FF3406E033789A0703D4012000F0CCF8F8E700F003FA204670BD00BF22470040738AFF1F41282DE9F04105460E46174698460AD8441F3A2CA4
:4026C0008CBF002401243F2804D8B1F5807F30D806E00124812E28BF0124B8F1100F28D13FB334BB00F0BEF928BB43463A463146284600F047F9072834D1DFF8748098F8B7
:4027000000201B4B12F0020F1F4603D1012000F08FF8F4E71A78900706D51B789B080CD002E01A78920719D44FF0FF3400F0BAF91AE0012418E0042416E00E4A3146537860
:402740002846127800F054F907280BD13A78084B9107E6D4012000F06BF8F7E71B789B08E4D0E1E70446E1E72046BDE8F08100BF22470040738AFF1F08B500F0C9F90F4AE5
:40278000137843F008031370137C43F0080313740B4BC8221A700B4A137843F010031370137C43F01003137402F5557213789B06FCD5BDE8084000F0AFB900BFA0430040C8
:4027C00001470040AC430040044B1A7842F001021A701A789207FCD5704700BF02470040024A137803F0FE03137070470247004001BE7047024A137843F00103137070473B
:40280000F646004038B50446084DB4F5004F05D9286800F075F9A4F50044F6E7034B58686043BDE8384000F06BB900BF1C81FF1F024B1B7A584300F063B900BF1C81FF1FB3
:4028400008B500F065F900BF00BF00BF00BF00BF00BF00BF00BF00BF00BF00BF00BF00BF00BF00BF00BF064A13889BB243F0040313801388BFF36F8FBDE8084000F04CB92B
:4028800000480040054A00F01F00126800F1100352F8230042F82310704700BF08ED00E000F01F0000F16040490100F56440C9B201707047134B144A1B78DBB203601278A0
:4028C00043EA0223114A0360127843EA0243104A0360127843EA026303600E4B0E4A1B78DBB24360127843EA02230C4A4360127843EA02430A4A4360127843EA0263436095
:40290000704700BF0301004904010049EC460040020100490101004900010049050100490601004908B500F0F3F8064A137843F008031370137C43F008031374BDE808401F
:4029400000F0EAB8A04300402DE9F0410E464B1E0A4FDFF82C80451EC418A5420BD03B78DB0703D40120FFF763FFF8E798F8003005F8013FF1E73046BDE8F08122470040F3
:402980002047004070B5184D2C78A60727D5174CB6262670D5262670022626702D78AD071FD416462070B51AADB2AB4203D916F8015B2570F7E7B3F5807F01D0072070BD9D
:4029C0003F28FBD800F5103001EB0021490100235A5C0133D2B2202B2270F9D1EEE7042070BD092070BD00BF224700402047004070B50D4D2C78A60712D50C4CB6262670CD
:402A0000D8262670052626702D78AD070AD42070080AC9B22070217022702370072070BD042070BD092070BD22470040204700400A4A137899070CD5094BB6211970E12146
:402A400019700E2119701278920704D4187007207047042070470920704700BF224700402047004038B500F053F80C4A147874B901250B4915700B682B400AD00B6823F076
:402A800001030B6000BF00BF00BF556002E0042400E01C4600F040F8204638BDC081FF1F0400084010B500F033F8094B00215A681970012A08D1074C226842F00102226003
:402AC00000BF00BF00BF5960BDE8104000F024B8C081FF1F04000840074B1B789B0708D5064BB6221A70E0221A700D221A70072070470420704700BF224700402047004050
:402B00000230800803D000BF01380046FCD17047EFF3108072B6704780F31088704700BF0F4A137803F00303012B0AD0022B0DD113790C2103F07F020A4B01FB02339B7ABE
:402B400000E01379DBB2022B08D800E00023064A1268D35C022B01D1FEF740BE0020704700600040028AFF1FF889FF1F00000000C1F30A522DE9F843A2F2FF36132E0B46E5
:402B800004460D468846074621DC002E4EDB3A4A864642FA06F901EA090202431CD034A3D3E9002300F0FAF80022002300F038FD48B1002D04DD4FF4801343FA06F6B0444B
:402BC00028EA0905002738462946BDE8F883332E06DDB6F5806F3CD020461946BDE8F883A2F213424FF0FF3929FA02F910EA090FF2D01FA3D3E9002300F0D0F800220023C2
:402C000000F00EFD0028DED0002D09DD142E2BD00123C6F1340603FA06F6371928BF9844454627EA090738462946CEE710A3D3E9002300F0B3F80022002300F0F1FC00288D
:402C4000C1D0002D0CDB55EA040707D000270B4DB9E702460B4600F0A1F8BFE73D46B2E700274FF00045AEE705F10108D8E700BF9C7500883CE4377EFFFF0F000000F03F24
:402C8000C1F30A522DE9F843A2F2FF36132E0B4604460D46884607461CDC002E3FDB3A4A864642FA06F901EA0902024317D034A3D3E9002300F072F80022002300F0B0FCC2
:402CC00020B1002D40DB28EA0905002738462946BDE8F883332E06DDB6F5806F2FD020461946BDE8F883A2F213424FF0FF3929FA02F910EA090FF2D021A3D3E9002300F0C0
:402D00004DF80022002300F08BFC0028DED0002D20DB454627EA090738462946D8E718A3D3E9002300F03AF80022002300F078FC0028CBD0002D18DB00273D46C6E7024655
:402D40000B4600F02BF8CCE74FF4801343FA06F6B044B8E7142E10D00123C6F1340603FA06F6371928BF9844D3E725F00042074B224318BF1D460027A8E705F10108C8E7F1
:402D80009C7500883CE4377EFFFF0F000000F0BF81F0004102E000BF83F0004330B54FEA41044FEA430594EA050F08BF90EA020F1FBF54EA000C55EA020C7FEA645C7FEA11
:402DC000655C00F0E2804FEA5454D4EB5555B8BF6D420CDD2C4480EA020281EA030382EA000083EA010180EA020281EA0303362D88BF30BD11F0004F4FEA01314FF4801C2D
:402E00004CEA113102D0404261EB410113F0004F4FEA03334CEA133302D0524263EB430394EA050F00F0A780A4F10104D5F1200E0DDB02FA0EFC22FA05F2801841F10001FE
:402E400003FA0EF2801843FA05F359410EE0A5F120050EF1200E012A03FA0EFC28BF4CF0020C43FA05F3C01851EBE37101F0004507D54FF0000EDCF1000C7EEB00006EEB1E
:402E80000101B1F5801F1BD3B1F5001F0CD349085FEA30004FEA3C0C04F101044FEA445212F5800F80F09A80BCF1004F08BF5FEA500C50F1000041EB045141EA050130BDBD
:402EC0005FEA4C0C404141EB010111F4801FA4F10104E9D191F0000F04BF01460020B1FA81F308BF2033A3F10B03B3F120020CDA0C3208DD02F1140CC2F10C0201FA0CF05B
:402F000021FA02F10CE002F11402D8BFC2F1200C01FA02F120FA0CFCDCBF41EA0C019040E41AA2BF01EB0451294330BD6FEA04041F3C1CDA0C340EDC04F11404C4F12002AC
:402F400020FA04F001FA02F340EA030021FA04F345EA030130BDC4F10C04C4F1200220FA02F001FA04F340EA0300294630BD21FA04F0294630BD94F0000F83F4801306BF04
:402F800081F480110134013D4EE77FEA645C18BF7FEA655C29D094EA050F08BF90EA020F05D054EA000C04BF1946104630BD91EA030F1EBF0021002030BD5FEA545C05D171
:402FC0004000494128BF41F0004130BD14F580043CBF01F5801130BD01F0004545F0FE4141F470014FF0000030BD7FEA645C1ABF194610467FEA655C1CBF0B46024650EABA
:40300000013406BF52EA033591EA030F41F4002130BD00BF90F0000F04BF0021704730B54FF4806404F132044FF000054FF0000150E700BF90F0000F04BF0021704730B5A9
:403040004FF4806404F1320410F0004548BF40424FF000013EE700BF42004FEAE2014FEA31014FEA02701FBF12F07F4393F07F4F81F06051704792F0000F14BF93F07F4F17
:40308000704730B54FF4607401F0004521F0004120E700BF50EA010208BF704730B54FF000050AE050EA010208BF704730B511F0004502D5404261EB41014FF4806404F158
:4030C00032045FEA915C3FF4DCAE4FF003025FEADC0C18BF03325FEADC0C18BF033202EBDC02C2F1200300FA03FC20FA02F001FA03FE40EA0E0021FA02F11444C1E600BF43
:4031000070B54FF0FF0C4CF4E06C1CEA11541DBF1CEA135594EA0C0F95EA0C0F00F0DEF82C4481EA030621EA4C5123EA4C5350EA013518BF52EA033541F4801143F4801363
:4031400038D0A0FB02CE4FF00005E1FB02E506F00042E0FB03E54FF00006E1FB03569CF0000F18BF4EF0010EA4F1FF04B6F5007F64F5407404D25FEA4E0E6D4146EB06066C
:4031800042EAC62141EA55514FEAC52040EA5E504FEACE2EB4F1FD0C88BFBCF5E06F1ED8BEF1004F08BF5FEA500E50F1000041EB045170BD06F0004646EA010140EA020020
:4031C00081EA0301B4EB5C04C2BFD4EB0C0541EA045170BD41F480114FF0000E013C00F3AB8014F1360FDEBF002001F0004170BDC4F10004203C35DA0C341BDC04F1140427
:40320000C4F1200500FA05F320FA04F001FA05F240EA020001F0004221F0004110EBD37021FA04F642EB06015EEA430E08BF20EAD37070BDC4F10C04C4F1200500FA04F320
:4032400020FA05F001FA04F240EA020001F0004110EBD37041F100015EEA430E08BF20EAD37070BDC4F1200500FA05F24EEA020E20FA04F301FA05F243EA020321FA04F04E
:4032800001F0004121FA04F220EA020000EBD3705EEA430E08BF20EAD37070BD94F0000F0FD101F00046400041EB010111F4801F08BF013CF7D041EA060195F0000F18BF93
:4032C000704703F00046520043EB030313F4801F08BF013DF7D043EA0603704794EA0C0F0CEA135518BF95EA0C0F0CD050EA410618BF52EA4306D1D181EA030101F0004195
:403300004FF0000070BD50EA410606BF1046194652EA430619D094EA0C0F02D150EA013613D195EA0C0F05D152EA03361CBF104619460AD181EA030101F0004141F0FE4196
:4033400041F470014FF0000070BD41F0FE4141F4780170BD70B54FF0FF0C4CF4E06C1CEA11541DBF1CEA135594EA0C0F95EA0C0F00F0A7F8A4EB050481EA030E52EA0335F6
:403380004FEA013100F088804FEA03334FF0805545EA131343EA12634FEA022245EA111545EA10654FEA00260EF000419D4208BF964244F1FD0404F5407402D25B084FEA6B
:4033C0003202B61A65EB03055B084FEA32024FF480104FF4002CB6EB020E75EB030E22BFB61A754640EA0C005B084FEA3202B6EB020E75EB030E22BFB61A754640EA5C00B7
:403400005B084FEA3202B6EB020E75EB030E22BFB61A754640EA9C005B084FEA3202B6EB020E75EB030E22BFB61A754640EADC0055EA060E18D04FEA051545EA16754FEA83
:4034400006164FEAC30343EA52734FEAC2025FEA1C1CC0D111F4801F0BD141EA00014FF000004FF0004CB6E711F4801F04BF01430020B4F1FD0C88BFBCF5E06F3FF6AFAECB
:40348000B5EB030C04BFB6EB020C5FEA500C50F1000041EB045170BD0EF0004E4EEA113114EB5C04C2BFD4EB0C0541EA045170BD41F480114FF0000E013C90E645EA060E2B
:4034C0008DE60CEA135594EA0C0F08BF95EA0C0F3FF43BAF94EA0C0F0AD150EA01347FF434AF95EA0C0F7FF425AF104619462CE795EA0C0F06D152EA03353FF4FDAE1046E9
:40350000194622E750EA410618BF52EA43067FF4C5AE50EA41047FF40DAF52EA43057FF4EBAE12E74FF0FF3C06E000BF4FF0010C02E000BF4FF0010C4DF804CD4FEA410C35
:403540007FEA6C5C4FEA430C18BF7FEA6C5C1BD001B050EA410C0CBF52EA430C91EA030F02BF90EA020F0020704710F1000F91EA030F58BF994208BF90422CBFD8176FEA06
:40358000E37040F0010070474FEA410C7FEA6C5C02D150EA013C07D14FEA430C7FEA6C5CD6D152EA033CD3D05DF8040B704700BF8446104662468C461946634600E000BF5E
:4035C00001B5FFF7B7FF002848BF10F1000F01BD4DF808EDFFF7F4FF0CBF012000205DF808FB00BF4DF808EDFFF7EAFF34BF012000205DF808FB00BF4DF808EDFFF7E0FFB3
:4036000094BF012000205DF808FB00BF4DF808EDFFF7CEFF94BF012000205DF808FB00BF4DF808EDFFF7C4FF34BF012000205DF808FB00BF4A0011D212F5001211D20DD5EE
:403640006FF47873B3EB62520ED44FEAC12343F0004343EA505323FA02F070474FF00000704750EA013002D14FF0FF3070474FF00000704780F0004002E000BF81F000414D
:4036800042001FBF5FEA410392EA030F7FEA226C7FEA236C6AD04FEA1262D2EB1363C1BFD218414048404140B8BF5B42192B88BF704710F0004F40F4000020F07F4018BF53
:4036C000404211F0004F41F4000121F07F4118BF494292EA030F3FD0A2F1010241FA03FC10EB0C00C3F1200301FA03F100F0004302D5494260EB4000B0F5000F13D3B0F1FA
:40370000807F06D340084FEA310102F10102FE2A51D2B1F1004F40EBC25008BF20F0010040EA03007047490040EB000010F4000FA2F10102EDD1B0FA80FCACF1080CB2EB84
:403740000C0200FA0CF0AABF00EBC25052421843BCBFD0401843704792F0000F81F4000106BF80F400000132013BB5E74FEA41037FEA226C18BF7FEA236C21D092EA030F46
:4037800004D092F0000F08BF0846704790EA010F1CBF0020704712F07F4F04D1400028BF40F00040704712F100723CBF00F50000704700F0004343F0FE4040F400007047FE
:4037C0007FEA226216BF08467FEA23630146420206BF5FEA412390EA010F40F4800070474FF0000304E000BF10F0004348BF40425FEA000C08BF704743F0964301464FF0C2
:4038000000001CE050EA010208BF70474FF000030AE000BF50EA010208BF704711F0004302D5404261EB41015FEA010C02BF84460146002043F0B64308BFA3F18053A3F5C6
:403840000003BCFA8CF2083AA3EBC25310DB01FA02FC634400FA02FCC2F12002BCF1004F20FA02F243EB020008BF20F00100704702F1200201FA02FCC2F1200250EA4C00A2
:4038800021FA02F243EB020008BF20EADC7070474FF0FF0C1CEAD0521EBF1CEAD15392EA0C0F93EA0C0F6FD01A4480EA010C400218BF5FEA41211ED04FF0006343EA501058
:4038C00043EA5111A0FB01310CF00040B1F5000F3EBF490041EAD3715B0040EA010062F17F02FD2A1DD8B3F1004F40EBC25008BF20F00100704790F0000F0CF0004C08BFF3
:4039000049024CEA502040EA51207F3AC2BFD2F1FF0340EAC250704740F400004FF00003013A5DDC12F1190FDCBF00F000407047C2F10002410021FA02F1C2F1200200FA9F
:4039400002FC5FEA310040F1000053EA4C0308BF20EADC70704792F0000F00F0004C02BF400010F4000F013AF9D040EA0C0093F0000F01F0004C02BF490011F4000F013BFA
:40398000F9D041EA0C018FE70CEAD15392EA0C0F18BF93EA0C0F0AD030F0004C18BF31F0004CD8D180EA010000F00040704790F0000F17BF90F0004F084691F0000F91F058
:4039C000004F14D092EA0C0F01D142020FD193EA0C0F03D14B0218BF084608D180EA010000F0004040F0FE4040F40000704740F0FE4040F4400070474FF0FF0C1CEAD05251
:403A00001EBF1CEAD15392EA0C0F93EA0C0F69D0A2EB030280EA010C49024FEA402037D04FF0805343EA111143EA10130CF000408B4238BF5B0042F17D024FF4000C8B4249
:403A400024BF5B1A40EA0C00B3EB510F24BFA3EB510340EA5C00B3EB910F24BFA3EB910340EA9C00B3EBD10F24BFA3EBD10340EADC001B0118BF5FEA1C1CE0D1FD2A3FF61C
:403A800050AF8B4240EBC25008BF20F0010070470CF0004C4CEA50207F32C2BFD2F1FF0340EAC250704740F400004FF00003013A37E792F0000F00F0004C02BF400010F4F5
:403AC000000F013AF9D040EA0C0093F0000F01F0004C02BF490011F4000F013BF9D041EA0C0195E70CEAD15392EA0C0F08D142027FF47DAF93EA0C0F7FF470AF084676E795
:403B000093EA0C0F04D14B023FF44CAF08466EE730F0004C18BF31F0004CCAD130F000427FF45CAF31F000437FF43CAF5FE700BF4FF0FF3C06E000BF4FF0010C02E000BFFC
:403B40004FF0010C4DF804CD4FEA40024FEA41037FEA226C18BF7FEA236C11D001B052EA530C18BF90EA010F58BFB2EB030088BFC81738BF6FEAE17018BF40F0010070475A
:403B80007FEA226C02D15FEA402C05D17FEA236CE4D15FEA412CE1D05DF8040B704700BF844608466146FFE70FB5FFF7C9FF002848BF10F1000F0FBD4DF808EDFFF7F4FF6D
:403BC0000CBF012000205DF808FB00BF4DF808EDFFF7EAFF34BF012000205DF808FB00BF4DF808EDFFF7E0FF94BF012000205DF808FB00BF4DF808EDFFF7D2FF94BF01200F
:403C000000205DF808FB00BF4DF808EDFFF7C8FF34BF012000205DF808FB00BF014B1868704700BF8C81FF1F0E4B70B51E460E4C0025E41AA410A54204D056F8253098474E
:403C40000135F8E700F0E0FB084B094C1E46E41AA4100025A54204D056F8253098470135F8E770BD1444000014440000144400001C44000010B5431E0A44914204D011F876
:403C8000014B03F8014FF8E710BD03460244934202D003F8011BFAE77047000000460000E0000000000000006910162E0000020162617564726174650069766F5F756172B9
:403CC00074006C696E65636F64650000005100401000405100403000C0510040100000000140001000140140000480180140800300400140000A004C014000020050014059
:403D000020000604114106000020028000000000000000080802178000000700101000000110118006000005000A0003080C04800000070F10300880004008000000000017
:403D40001015650304000200E00C18FFFFFF62A0F0410C000000000002110408040491110001000000000000400200103010001010120000000000000000000000000000E2
:403D8000000000000145004004520040026400400265004002030140010701406A0801403A090140040B0140020D01400415014001170140211801404B1901405D1A0140AA
:403DC000521B014006400140074101400242014004430140084501400A46014009470140074801400C490140014C014008500140025101407E021019111319017C40880D2F
:403E0000890F88728B38E208E602E602030706040D040F0811031604170C1A031C01212223112C082D112F22300131303204330734083508360237083E143F1040604105F9
:403E400045D04602480749FF4AFF4BFF4DA04F04501852805405580459045A045B045C995D995F01604062C06440654066C068C06AC06CC06EC080508111830A88038A0C3A
:403E80008C508EA08F0990609290A004A109A201A316A405A60AAC08AE02B030B104B20FB303B4C0B518B822B928BB02BE11BF14C042C103C5E0C6CEC70BC81EC9FFCAFF38
:403EC000CBFFCEF0CF44D00CD401D604D804D904DA04DB04DC21DD11DF01E6C0EA40EB02014203080420052409020E020F2810211101158019081B211E461F04210322109F
:403F000023202540260A270829022C012D01360A39423C023F804044410849014E084F89501851405740588059215A045E405F09634069407401874088848F209620A721F0
:403F4000C02BC2E8C48DCA91CCC0CE99D007D230D6DFD80182108B018F20E404E208E602E020E60CE820EC08EA0283088410873589038A038B148C108D738E0C8F0C940C41
:403F8000957396119704994A9B14A41CA602A814AC09AE10B10FB21FB360B510B908BB02BF14D804D904DB04DC11DF01005002100680072809080E8A0F1010181201144001
:403FC000160A18101D161E80204822082340261027922C402E802F6A301031083210340136243782386C39023A013C203D093E203F124502462047104E06560857105880AE
:404000005E206E146F01760277287D8088408A048D108F01902093089444950199089C019D06A008A140A424A508A718C077C2F4C4D7CAF0CCF6CEEFD0E0D230D628DE10C3
:40404000EA02031C0540070308150A2A0B080D210F161521170E191C1B232009221228242A122C072E383160331A343F350F39023A033B283E104006464049FF4A074BFF76
:404080004C404D204EF04F0550085608580459045A045B045C125D915F01604061A8624063208011810385FC8610880489FC8C088F03918092E394FF9703981C99529AC3AD
:4040C0009B289CF39D259E0C9F48A01FA2A0A403A50BA714A80CA903AC02AF03B08CB180B31CB47CB560B60FB703BAAAD418D604D804D904DB04DC11DD10DF0100100508AF
:40410000060207880E290F801080115C15041680176019121C201E291F422109221024402504262327022D042EA02F023108321036243781380839023A103B403C403E15C9
:404140003F804A085004521058805F0263026440670A6CA06D406F2881108220834084408880901091109214934A940895029620978099089A229BA99D029E10A208A43083
:40418000A50CA627A72BAD10B080C0F2C2F0C4FBCA70CCF6CEFFD204D688D8B8E020E8203040330134123B10CCF0CE108402871097109C529F01E210E6409C509F018410B1
:4041C0009C509F01E64057205B805D4067088641D403D604D80183208B048D409540960197089F80A640A720E00309080A010E808F8096019F80A640C20EE4080008220466
:404200009C40AF01C010C840EA400B205301830184408B109C40AE04B004C210D480E630EC10AD08000601010C060D01100611011C061D0100AF01024100000100000000DB
:40424000C000000B0B0000000000001B1B001B0000000100100101000100000030313233343536373839414243444546000000002800000000010400010000000000000033
:4042800000014359555342000000303030303100000000000000000012034D005300460054003100300030000100000001000000B442000001000000F24300000000000078
:4042C0000000000001000000CC42000001000000AF43000003000000F64200000000000000000000000000000000000000000000F4420000020A00008103080002000100B0
:40430000820240000A000100030240000A000203040309042C0343007900700072006500730073002000530065006D00690063006F006E0064007500630074006F007200AF
:40434000100355005300420055004100520054003803430044004300200043006F006D006D0075006E00690063006100740069006F006E00200049006E0074006500720067
:404380006600610063006500260343004400430020004400610074006100200049006E0074006500720066006100630065000009024300020101C0320904000001020201D9
:4043C00003052400100104240202052406000105240100010705810308000A09040100020A00000407058202400000070503024000001201000202000008B40432F201001C
:404400000102800143000000F8B500BFF8BC08BC9E46704751000000ED110000F8B500BFF8BC08BC9E4670472D00000040440000C880FF1FC8000000080900000000000078
:40444000000000009C3C0000A03C000001000000B03C0000C881FF1F0400000001000000B93C0000CC81FF1F0100000001000000C23C0000CD81FF1F0100000000C201009F
:4044800000000800C20100000008A12000000000020000000000007D00FA0000400000000090D003000000000000000000000000000000000000000000000000000000004C
:4044C0000000000004440000000000000000000000000000000000000000000000000000000000000000000000000000000000000000000000000000000000000000000074
:40450000000000002C81FF1F0000000000000000000000000000000000000000000000000000000000000000000000000000000000000000000000000000000000000000B0
:40454000000000000000000000000000000000000000000000000000000000000000000000000000000000000000000000000000000000000000000000000000000000003B
:4045800000000000000000000000000000000000000000000000000000000000000000000000000000000000000000000000000000000000000000000000000000000000FB
:4045C00000000000000000000000000000000000000000000000000000000000000000000000000000000000000000000000000000000000000000000000000000000000BB
:404600000080002011460000994801009948010008B510F05FF9000010B5054C237833B9044B13B10448AFF300800123237010BDE88FFF1F00000000CCD90100084B10B5B5
:404640001BB108490848AFF300800848036803B910BD074B002BFBD0BDE81040184700BF00000000EC8FFF1FCCD90100C880FF1F0000000000F1080343604FF0FF32C36035
:404680000361002382600360704700230361704743689A684B608A609A6851609960036808610133036070470A6830B5531C01D1036907E000F108035C682568AA4201D331
:4046C0002346F9E75A684A6091608B605960036808610133036030BD4168826803698A60826851605968884208BF5A60002202611A68013A1A601868704710B5044601F095
:4047000021FEA46B01F02EFEB4FA84F0400910BD70B51546026C0446866B32B905682DBB806801F0EBF9A56027E065B9406816F0D2FD6268236C1344A2686360934217D3ED
:404740002368636014E0C06816F0C5FD236CE2685B4221681A448A42E2603EBFA2689B18E360022D06D13EB1013E03E0104604E0284602E0002000E030460136A66370BD1B
:4047800003461A6C10B4084662B1D9689C681144A142D96028BF196810BC28BFD960D96816F099BD10BC704770B5044601F0CAFD94F8455004F124066DB2002D0ADD636A74
:4047C00043B1304600F0FAFF08B101F067F8013D6DB2F2E7FF2384F8453001F0C3FD01F0B1FD94F8445004F110066DB2002D0ADD236943B1304600F0E1FF08B101F04EF8B0
:40480000013D6DB2F2E7FF2384F84430BDE8704001F0A8BD38B504460D4601F093FD206CE36B22684343D1181B1A1344A160E3600021FF23A163626084F8443084F84530ED
:404840007DB92369ABB104F1100000F0B7FF80B10A4B4FF080521A60BFF34F8FBFF36F8F07E004F11000FFF705FF04F12400FFF701FF01F077FD012038BD00BF04ED00E01E
:40488000F8B50646484350300D46174601F054FC044668B10DB9206002E000F150030360E663256401212046FFF7B4FF84F84C702046F8BD2DE9FF470026044689461F467B
:4048C000B046DFF8E4A0019201F03CFDA26BE36B9A4201D3022F17D13A4649462046FFF717FF636A1BB104F1240000F067FF38B12D4B4FF080521A60BFF34F8FBFF36F8FD1
:4049000001F030FD01204CE0019D1DB901F02AFD284646E016B902A800F090FF01F022FD00F0E2FD01F00EFD94F84430FF2B08BF84F8448094F84530FF2B08BF84F84580B5
:4049400001F010FD01A902A800F082FF18BB01F0F9FCA66BE56B01F005FDAE4215D1019904F1100000F004FF2046FFF71DFF00F03BFE08B10126A7E74FF08053CAF80030EC
:40498000BFF34F8FBFF36F8FF4E72046FFF70CFF00F02AFEEEE72046FFF706FF00F024FE002004B0BDE8F08704ED00E0F8B504461746EFF311864FF0A00282F31188BFF3E6
:4049C0006F8FBFF34F8F806BE26B904201D3022B1AD194F845502046A26B6DB21A46FFF797FE6B1C0AD1636A63B104F1240000F0E5FE38B137B10120386006E001356DB2A1
:404A000084F84550012000E0002086F31188F8BD38B50C46EFF311854FF0A00383F31188BFF36F8FBFF34F8F826BC36B9A4216D290F8453001325BB282635A1C09D1436A97
:404A40005BB1243000F0BAFE38B134B10120206006E001335BB280F84530012000E0002085F3118838BD00002DE9F043002604468846374685B0DFF8E090019201F062FC22
:404A8000A56BC5B141462046013DFFF779FEA563236963B104F1100000F090FE38B12E4B4FF080521A60BFF34F8FBFF36F8F01F059FC01204DE0019D1DB901F053FC2846CA
:404AC00047E016B902A800F0B9FE01F04BFC00F00BFD01F037FC94F84430FF2B08BF84F8447094F84530FF2B08BF84F8457001F039FC01A902A800F0ABFEF8B92046FFF7B7
:404B0000FCFDA8B1019904F1240000F031FE2046FFF74AFE00F068FD08B10126AEE74FF08053C9F80030BFF34F8FBFF36F8FF4E72046FFF739FE00F057FDEEE72046FFF7BD
:404B400033FE00F051FD2046FFF7D7FD0028E4D0002005B0BDE8F08304ED00E02DE9F043002504462F462E4685B0DFF81C91019101F0E8FBA36BCBB1013BA363236813B919
:404B800001F02CF8A060236963B104F1100000F015FE38B13C4B4FF080521A60BFF34F8FBFF36F8F01F0DEFB01206AE0DDF80480B8F1000F03D101F0D5FB404661E017B98B
:404BC00002A800F03BFE01F0CDFB00F08DFC01F0B9FB94F84430FF2B08BF84F8446094F84530FF2B08BF84F8456001F0BBFB01A902A800F02DFE48BB2046FFF77EFDF8B14E
:404C000023683BB901F09EFBA06800F027FF054601F0A8FB019904F1240000F0A9FD2046FFF7C2FD00F0E0FC08B10127A0E74FF08053C9F80030BFF34F8FBFF36F8FF4E7B8
:404C40002046FFF7B1FD00F0CFFCEEE72046FFF7ABFD00F0C9FC2046FFF74FFD0028E4D075B101F06FFB616A19B1236B1968C1F10501A06800F076FF01F074FB002000E0B3
:404C8000284605B0BDE8F08304ED00E02DE9FF474FF0000804460F461546C146DFF8FCA0019301F04FFBA36BAB4222D9226C6AB105FB0225E168A3682944994224BFC91ADA
:404CC0002368384628BFC91816F005FB636A63B104F1240000F072FD38B1304B4FF080521A60BFF34F8FBFF36F8F01F03BFB012050E0019E1EB901F035FB30464AE0B8F1FD
:404D0000000F02D102A800F099FD01F02BFB00F0EBFB01F017FB94F84430FF2B08BF84F8449094F84530FF2B08BF84F8459001F019FB01A902A800F08BFD00BB2046FFF705
:404D4000DCFCB0B1019904F1240000F011FD2046FFF72AFD00F048FC10B14FF00108A0E74FF08053CAF80030BFF34F8FBFF36F8FF3E72046FFF718FD00F036FCEDE7204617
:404D8000FFF712FD00F030FC2046FFF7B6FC0028E3D0002004B0BDE8F08700BF04ED00E010B5044601F0CEFAA46B01F0DBFA204610BD38B5054601F0C5FAAC6BEB6B1C1B0D
:404DC00001F0D0FA204638BD30B5084A002352F8335002EBC30425B9044A606042F8331030BD01330A2BF2D130BD00BF2054002070B504460D46164601F0A4FA94F8443053
:404E0000FF2B04BF002384F8443094F84530FF2B04BF002384F8453001F0A4FAA36B2BB93246294604F1240000F0B2FC2046BDE87040FFF7B9BC8268436800681344181AA5
:404E4000824298BF801A70472DE9F0414468856817462D1B954228BF1546064680692A462044884616F037FAAF4205D97A1B08EB0501B06916F02FFAB268E319934228BFA3
:404E80009B1A73603846BDE8F08137B504460D46019283B1017FC90704D49A4294BF019201930AE0069A934205D304220DEB0201FFF7CAFF01E0002004E0019A294620469C
:404EC000FFF7C2FF03B030BD9A4228BF1A462DE9F041074688461646CAB10468856881692D1B954228BF154621442A46404616F0F2F9AE4205D9721BB96908EB050016F094
:404F0000EAF9BB6832199A4228BFD21A3A603046BDE8F081F8B5531E5D4200F1010700F125005D41002914BF0E46012601F004F9044648B12422002116F0D8F904F12403DF
:404F4000A361A760E66025772046F8BD037F9B0701D401F07DB92422002116F0C7B9826803684168D0180138401A824298BF801A7047FFF760BF2DE9F043174687B0027FC4
:404F800003938368D2070446884603F1FF3305D53E1DB34206D20023039303E0BB4228BF3B461E46039B23B92046FFF7D8FF05462AE004A800F032FC4FF0000901F0C2F932
:404FC0002046FFF7CCFF8642054619D90021084600F0CAFE00F02CFD606101F0C3F9039B0093002319461A46184600F003FEC4F8149003A904A800F02BFC0028DED001E0EF
:4050000001F0B0F9002DCFD000962B463A4641462046FFF73AFF0646A0B12046FFF70BFFE36898420ED300F05FFA236943B10025206900952B462A46294600F031FE25615D
:4050400000F0D2FA304607B0BDE8F0832DE9F0431746027F85B012F0010F0446894614BF042600269846EBB101F06CF92046FFF7E2FE8642054606D30021084600F074FEBC
:4050800000F0D6FC206101F06DF9AE4211D300231A4619461846CDF8008000F0ABFD204600232361FFF7C7FEB042054601D8002628E07EB12B46324603A92046D4F80080E3
:4050C000FFF702FF039BAD1B9F422EBF1F46C4F8008000272B463A4649462046FFF7F4FE06460028E3D000F0FFF9636943B10025606900952B462A46294600F0D1FD6561C9
:4051000000F072FA304605B0BDE8F083054B1A68126812B94FF0FF3202E01A68D26812685A6070470490FF1FF8B5194C0546A668E0680F460430FFF7CFFA234638B9E2686F
:405140002069D16A01228A4020EA020222616A1C07D137B1D9680F480431BDE8F840FFF797BA7419DB68A642094D5C6006D9A86AE968BDE8F8400431FFF796BA2868E96871
:405180000431FFF791FA6B689C4238BF6C60F8BD0490FF1F1890FF1F08B50D4C636C002BFCD001F0CFF8A36BDD68281DFFF794FA236C013B2364636C013B636401F0D2F809
:4051C000286B01F045F8284601F042F8E6E700BF0490FF1F2DE9F84F950007462846884699460B9E00F0A8FF8246002800F0B980602000F0A1FF0446B0B1C0F830A02A46B1
:405200005046A521A5F1040A16F070F8256BAA442AF0070AB8F1000F17D008F1FF3304F1330208F10B0805E0504601F011F898E0984506D013F8011F02F8011F19780029B8
:40524000F6D1002384F83F3001E084F834800A9D4FF0000B042D28BF042504F10408E562E5644046C4F850B0FFF70FFAC5F1050504F11800FFF709FA2461A5616462C4F871
:4052800054B0C4F840B0C4F858B084F85CB04A463946504601F030F8206006B13460334D01F050F82B6C05F1480901332B64EF682FBBEC602B6C012B2AD109EB070014377E
:4052C000FFF7D8F9642F294EF7D106F1AC0A504606F1C007FFF7CEF93846FFF7CBF906F1D400FFF7C7F906F12C00FFF7C3F906F11400FFF7BFF9C6F800A0B76208E0D5F8E4
:40530000E8302BB9EB68DA6AE36A9A4298BFEC60D5F8EC30E26A0133C5F8EC30636401262B6906FA02F114200B4300FB029041462B61FFF7ADF901F015F8D5F8E8306BB19A
:405340000A4BDB68DA6AE36A9A4207D2084B4FF080521A60BFF34F8FBFF36F8F3046BDE8F88F4FF0FF30BDE8F88F00BF0490FF1F04ED00E0F8B50446254D00F0E3FF04B9BB
:40538000EC68271D3846FFF7A7F960B9E06A142202FB0052936C1E492BB90A690123834022EA03030B61A36A1BB104F11800FFF793F9D5F8EC30164E0133C5F8EC30EB6822
:4053C0009C4208D1394606F12C00FFF761F9736C013373640AE0336C206B013B336400F037FF204600F034FFFFF790FE00F0BAFFD5F8E8305BB1064BDB689C4207D1054BCC
:405400004FF080521A60BFF34F8FBFF36F8FF8BD0490FF1F04ED00E02DE9F041184C0646E368984222D000F08DFFD4F800807569A76A00F097FF45451BD0BD4219D004F1CC
:4054400014039D4209D1B36A9BB996F85C30012B0CBF02200320BDE8F0812C34A5420BD0002D0CBF04200120BDE8F0810020BDE8F0810220BDE8F0810420BDE8F08100BFA3
:405480000490FF1F37B5144C002504F1F803019300952B46642211491148FFF79BFE012815D100F0B9FC012811D14FF0A00383F31188BFF36F8FBFF34F8F4FF0FF33636053
:4054C000C4F8E800A5600DF05CF900F0A3FF054B1B6803B030BD00BF0490FF1FD8D9010099510000CC80FF1F034AD2F8F4300133C2F8F430704700BF0490FF1F014B986874
:40550000704700BF0490FF1F014B186C704700BF0490FF1F2DE9F84F324BD3F8F4201C46002A55D19F6801379F6057B91B68A26A2260A362D4F8FC300133C4F8FC30FFF772
:40554000E5FD636800259F4233D3DFF898904FF0010B09F1480A2268224B126812B94FF0FF3206E0D9F80020D268D6687268974201D25A601DE006F104084046FFF7ACF881
:40558000B36A1BB106F11800FFF7A6F8F26A23690BFA02F114200B4300FB02A041462361FFF776F8E368F26ADB6A9A4228BF0125D1E7E3681422DB6A02FB03439B6C022B27
:4055C000D4F8F03028BF0125002B18BF012505E0D3F8002100250132C3F800212846BDE8F88F00BF0490FF1F2DE9F8432D4C00F0A9FED4F8F430013BC4F8F430D4F8F450FD
:405600000DB1002448E0236C002BFAD0A146012704F14808D4F8D4300BB3D9F8E030DD682E1D05F11800FFF757F83046FFF754F8EA6AD9F8103007FA02F114200B4300FBA8
:4056400002803146C9F81030FFF722F8D9F80C30EA6ADB6A9A4228BFC9F8F070DAE70DB1FFF754FDD4F800514DB10126FFF752FF08B1C4F8F060013DF8D1C4F80051D4F8A2
:40568000F030002BBDD0084B4FF080521A60BFF34F8FBFF36F8F012400F064FE2046BDE8F88300BF0490FF1F04ED00E008B540B9094B4FF080521A60BFF34F8FBFF36F8FE0
:4056C00008BDFFF711FF0021FFF72EFDFFF78CFF0028EDD008BD00BF04ED00E01D4B70B5D3F8F4201C461AB10122C3F8F02070BDC3F8F02011F0D4FE4042800AC4F80401C3
:40570000D4F80431D4F808118B4206D9D4F80401E268536D03445B1A5365D4F80431C4F808312369B3FA83F3DBB2C3F11F03142202FB03F6A119C86C074D40683544A84207
:4057400002FB0343C86404BF4068C864DB6CDB68E36070BD0490FF1F5490FF1F10B1036C19440164704710B1036C5B1A0364704710B50C46054BD9681831FEF795FF204629
:40578000BDE810400121FFF7CFBC00BF0490FF1F38B514460D46084BD9681831FEF778FF002C214608BF2846BDE8384018BF4FF0FF30FFF7B9BC00BF0490FF1FF8B5C3681F
:4057C000154CDD6805F118063046FEF785FFD4F8F43083B92F1D3846FEF77EFFEE6A22690123B34013432361142004F14803394600FB063002E0314604F1D400FEF748FF42
:40580000E368EA6ADB6A9A4283BF034B0120C3F8F0000020F8BD00BF0490FF1F10B5044600F090FD044BD3F8FC209B6822606360BDE8104000F096BD0490FF1F034BD3F8F9
:40584000FC209B6802604360704700BF0490FF1F70B50D46044600F075FD2B680E48591C826813D0D0F8FC0026686168864205D08A4203D300232B60012408E0521A9A4230
:40588000F8D29B1A2B602046FFF7D8FF002400F069FD204670BD00BF0490FF1F024B0122C3F8F020704700BF0490FF1F70B50C461646054608B91C4AD56805F1340262605A
:4058C000EA6A052B22612A6B2560E2616A6CA2602A6C6262EA6C62616A6DA26112D0124AD268954202D1002323730FE0032B23730CD1FFF7F9FDAB6A0BB102232373FFF746
:4059000073FE03E02846FFF787FD20734EB1296B0A46531A12F8010BA528FAD09B08238470BD268470BD00BF0490FF1F2DE9F84F0D6881460C46924625B34B6801F108068E
:405940005B680025B3424B6008BF73684FF0280B08BF4B604B68D3F80C8063680BFB05915B6801229E42636008BFE36805F1010508BF63606368DF6853463846FFF796FFD3
:40598000B845EAD12846BDE8F88F00002DE9F84F17460546FFF7A8FD244B1A6C8A423FD84FF000094C4603F1480A4FF0280B09F150010BFB045001225144FFF7B7FFA9F1E8
:4059C000140919F1640FDFF864804FF028060444EDD1D8F80010022206FB0450FFF7A6FF0444D8F82810022206FB0450FFF79EFF0444042208F12C0106FB0450FFF796FF1B
:405A0000044406FB0450032208F11401FFF78EFF044437B111F044FD4042800A386000E00024FFF7E1FD2046BDE8F88F0490FF1F014BD868704700BF0490FF1F064BD3F811
:405A4000E82032B1D3F8F430002B0CBF0220002070470120704700BF0490FF1F2DE9F0410446002844D0244AC36AD1681746C96A8B4234D28269204D002AA8BFFA6805F1CF
:405A80004806A2BFD26AC2F105028261142202FB036342699A421CD100F104084046FEF71BFE30B9E16A2A6901238B4022EA03032B61FB683A69DB6A1420E362012404FA85
:405AC00003F10A4300FB036041463A61FEF7E0FD0EE0EB68DB6AC3620120BDE8F081D268C36CD06A83422CBF00200120BDE8F0812046BDE8F08100BF0490FF1F38B5044663
:405B000008B9002038BD036DC16AC26C013B91420365F6D0002BF4D1051D2846FEF7DCFD0E4A30B9E16A106901238B4020EA03031361E36C1069C3F10501E362A1610124D5
:405B400004FA03F108431061054A142000FB03202946FEF79DFD204638BD00BF0490FF1F4C90FF1FF8B50446002833D0C36C994238BF1946C36A8B422CD0026D012A29D106
:405B80008269154D002A05F148064FF0140202FB03634269C162A4BFC1F1050181619A4218D1071D3846FEF797FDE36A28B9286901229A4020EA02022A61286901229A40D4
:405BC000024314202A61394600FB0360BDE8F840FEF75EBDF8BD00BF0490FF1F044BDA681AB1D9680A6D01320A65D868704700BF0490FF1F2DE9F8430446274D1F46894650
:405C00001646DDF8208000F09DFBEB68234493F85C30022B19D0EB6803EB84039A6D22EA09019965EB680121234483F85C10B8F1000F0AD04046FFF777FA184B4FF080528B
:405C40001A60BFF34F8FBFF36F8F00F08BFB00F079FB2FB1EB6804F1160253F822303B60EB68234493F85C30022B09BF0A4B0026DB6803EB840302BF9A6DB2439A65EB6810
:405C800008BF01261C44002384F85C3000F06AFB3046BDE8F88300BF0490FF1F04ED00E02DE9F041069D06460C4690461F4600F049FB25B104F1160356F823302B603319EB
:405CC00093F85C50022283F85C207B1EEDB2032B1AD8DFE803F002090F1306EB8404A36D43EA0802A2650FE006EB8404A36D0133A36509E0163446F8248005E0022D28D077
:405D000004F1160146F82180012D01D0012421E0371D134C3846FEF7DFFCF26A236905FA02F10B432361142004F1480300FB02303946FEF7ADFCE368F26ADB6A9A42E5D962
:405D4000084B4FF080521A60BFF34F8FBFF36F8FDCE7002400F006FB2046BDE8F08100BF0490FF1F04ED00E038B50C46054608B9084BDD6800F0E6FA291991F85C30002441
:405D8000022B04BF81F85C40012400F0EBFA204638BD00BF0490FF1FF8B50F4C00F0D2FA2568A5B9271D384604F11806FEF762FC3046FEF75FFC2A460C211020E7622663DC
:405DC000FEF75EFD206010B10449FEF7FDFFBDE8F84000F0C7BA00BF1091FF1FDDD90100914208B54160006107D8D21A83699A420ED2084B011D186B06E09A4201D29942E8
:405E000006D2044B011DD86AFEF74EFC002008BD012008BD1091FF1F07B5FFF7BDFF084B186848B134330193032300938022002304490548FFF7CEF903B05DF804FB00BF42
:405E40001091FF1FE2D901003D5F00002DE9F04180462C200F4615461E4600F06DF90446A0B1002380F82830FFF796FF069BC4F80080A761E6612362201DFEF706FC2DB16C
:405E800094F8283043F0040384F828302046BDE8F08100007FB50E4C0546206816461A46A0B105290191029603950BDCFFF7C6FD002302280CBF089A1A4601A92068FEF735
:405EC000F9FC03E0002301A9FEF770FD04B070BD1091FF1F2DE9F743174D00272E46EA6A154B116811B3D368DC68D3F8008004F104094846FEF7F0FB236A2046984794F823
:405F000028305B07EBD5A3694344984506D2636024614946F06AFEF7C7FBE0E700230097424619462046FFF7B5FFD8E7196B1A63D96203B0BDE8F0831091FF1F2DE9F04371
:405F400087B0634EF36AB0461D68002D40F0BB800124FFF7C9FAFFF7D1FAB36B0746984203D2FFF7B7FF012300E00023DFF86091B763002B3ED134BBAF422AD3FFF734FB1F
:405F8000D9F82C30DB68DE68301DFEF7A5FB96F8283058070FD5B1692B463A4629443046FFF71EFF58B1009423462A4621463046FFF770FF03E023F0010386F82830336AFA
:405FC000304698471CE0D9F830301C68B4FA84F464092246E91B3068FEF70AFFFFF704FB70B93C4B4FF080521A60BFF34F8FBFF36F8F05E0FFF7F8FA02E0039B002B08DA3C
:40600000002203A9D8F80000FEF72EFD0028F4D197E7059C636913B1201DFEF75DFBFFF76DFAD8F838300546984201D2FFF752FF039BC8F83850092BE2D8DFE803F0050510
:40604000052528370505252894F82830A16943F0010384F82830049B2A4619442046FFF7BFFE0028CCD0236A2046984794F828305907C5D5A269049900230A440093194643
:406080002046FFF707FFBBE794F8283016E094F82830049943F0010384F82830A1612B462A4629442046FFF79BFEA9E794F828309A0703D4204600F0CBF8A1E723F001038D
:4060C00084F828309CE7DB6800241D6841E700BF1091FF1F04ED00E00F4B30B51C461A68824201D21346FAE799685D18A84201BF806809181846996081684518AA4206D169
:40610000E468A2421FBF94681268091981609842026018BF186030BD4C91FF1F054B984206D303F5404398422CBF002001207047002070475C91FF1F2DE9F0410446FFF7C1
:40614000D3F94049404ECB680BBB01F1100250071FBF01F117023D4B22F007029B1A08BF4FF440431344103B23F00703002088600A6098601860CB60981A13604FF00043A7
:406180009060C6F86805C6F86C05C6F87035D6F870351C424CD1002C48D0103463071CBF24F007040834002C40D0D6F86C8544453ED80D68234AAB689C4203D8C9688D42D4
:4061C00006D135E028680028F8D02A460546F2E7176829681B1B202B07F11007116004D928198360AC60FFF777FFAB68C3EB0803C6F86C35FFF71CFCA9686860FFF7AEFA65
:40620000D6F86825D6F86C3593423CBF0E4AC2F86835AA68D6F870351343AB6000232B60D6F874350133C6F8743502E0274600E00027FFF7D9F917B90CB10CF099FA3846B7
:40624000BDE8F0814C91FF1FF44B00205C51002038B5044638B3144D50F8083CD5F87025134220D050F8101CE9B923EA020340F8083CFFF739F954F8081CD5F86C3554F835
:406280000C0C0B44C5F86C35FFF76DFAA4F11000FFF722FFD5F878350133C5F87835BDE83840FFF7A1B938BDF44B0020014BD3F86C057047F44B002082B0002301934FF061
:4062C000A00383F31188BFF36F8FBFF34F8F019B002BFCD002B0704706480068006880F3088862B661B6BFF34F8FBFF36F8F00DF00BF000008ED00E04FF0807340F8043C03
:40630000054B21F0010140F8081C40F80C3C40F8202C4038704700BFB962000000000000074B19680868B0E8F00F80F30988BFF36F8F4FF0000080F311884EF00D0E7047A8
:406340001090FF1F4FF0A00383F31188BFF36F8FBFF34F8F024A136801331360704700BFD080FF1F034A1368013B13600BB983F311887047D080FF1F00000000000000006D
:40638000EFF30980BFF36F8F0D4B1A6820E9F00F10602DE908404FF0A00080F31188FFF79DF94FF0000080F31188BDE8084019680868B0E8F00F80F30988BFF36F8F704770
:4063C0001090FF1F08B54FF0A00383F31188BFF36F8FBFF34F8FFFF79DF818B1034B4FF080521A60002383F3118808BD04ED00E0054B064900221A600A604FF6FF11044AB4
:40640000116007221A60704710E000E018E000E014E000E00B4B10B51A68002442F460021A601A6842F060421A60FFF7E1FF064B1C60FFF751FFFFF751F9FFF73DFF2046B1
:4064400010BD00BF20ED00E0D080FF1F436A014940681847EAD9010038B5094B05461A681C460AB1FFF7F2FF4FF48060FFF764FE206020B92846BDE83840FFF7E7BF38BD71
:4064800070540020034B1B680BB9FFF7DFBF1846FFF7DEBE705400200B4A10F0800F126818BF7F203F294FEAD00328BF3F2100F007003AB101EB8311012303FA00F0535C4A
:4064C00018435054704700BF705400202DE9F74F9A46161A002EC1EB0A07B8BF76428242CCBF01234FF0FF33002FB8BF7F428A45CCBF4FF0010B4FF0FF3BBE4280460D463B
:40650000914605DC022497FBF4F4644272420BE07410FBE7554516D09442C6BFE11B98442146BC420CDB0C46E9B25FFA88F001920093FFF7B1FFC845009B019AECD1E9E7FF
:4065400031445D44EFE703B0BDE8F08F094B10B51A68194602B910BD00231C460022086810440132402AC454F9D14033B3F5806FF4D110BD705400202DE9F04F404B85B057
:406580001A688046019312B9FFF760FF75E04FF48066A6F5806505F1010B05F1020A05F103090024019B611C1A68505D40FA04F30841C00712F80B0003F0010348BF43F0E8
:4065C000080340FA04F748BFDBB20841FF0748BF43F00203C00712F80A0012F8092040FA04F748BF43F010030841FF0748BF43F00403C70742FA04F048BF43F020030A4173
:40660000C00748BF43F04003D1076FF01D0248BF43F0800303F0C0018DF80C20C02923F07F02D2B201D1A32207E00AB1A22204E05A0654BF6FF05F02A12203F03F0363F03E
:406640007F038DF80D208DF80E30D8F82470032303AA0C49D8F804000234B847082CA1D14035AE4297D1D8F824300749D8F8040004369847B6F5886F8BD105B0BDE8F08FE3
:406680007054002065F7010087FA010030B41446054A656A117109125171D0706068AC4630BC062301496047D480FF1F65F7010030B41446094A0D2313720B129172D372E2
:4066C000656A0B1409161373517350726068AC4630BC082306320249604700BFD480FF1F65F7010030B41446064A656A91740912D17450746068AC4630BC06230E32024918
:40670000604700BFD480FF1F65F7010030B41446094A102313720B129172D372656A0B1409161373517350726068AC4630BC082306320249604700BFD480FF1F65F70100D4
:4067400010B4446A0423A446024A0349406810BC604700BF11DA010065F701002DE9F04385B081460D980F4616461D4614F044FE8046FF238DF8043000F109038DF805303F
:406780008DF80C5005232D120E9C8DF806308DF80D509DF830300F4D8DF808708DF80A603F1236128DF80B608DF80E30666A01AA29468DF807908DF809700B236068B047D0
:4067C000666A5FFA88F30D9A29466068B04705B0BDE8F08365F701002DE9F04786B082461098894616461D4614F006FE8046FF238DF8003000F113038DF8013011238DF85A
:4068000002304FEA29238DF805304FEA29438DF8063033128DF8093033140E9C8DF80A302B128DF80D302B148DF80E3023128DF810408DF8113023142416119F8DF812301B
:406840008DF813409DF83C30124C8DF804908DF808608DF80C504FEA296936162D168DF80F508DF814307D6A6A4621468DF803A08DF807908DF80B6015237868A8477D6AD3
:406880005FFA88F3109A21467868A84706B0BDE8F08700BF65F701002DE9F743814618460E4615461F4614F0A7FD80468DF80460FF2336120A9C8DF800308DF80560831D07
:4068C0000E4E8DF801308DF8065002232D128DF802308DF807506A46656A31468DF8039008236068A847656A5FFA88F33A4631466068A84703B0BDE8F08300BF65F701008C
:406900002DE9F04385B081460C980E4615461C4614F072FD8046FF238DF8003000F10E038DF801300E238DF8023033128DF8053033148DF806302B128DF809302B148DF8ED
:406940000A3023128DF80C408DF80D30231424160D9F8DF80F400F4C8DF804608DF8085036162D168DF80B508DF80E307D6A6A4621468DF803908DF8076010237868A847CD
:406980007D6A5FFA88F30C9A21467868A84705B0BDE8F08365F701000E4B73B533F8042F04469B7808460D46ADF804208DF8063014F022FD01308DF8050001AA666A032336
:4069C00005496068B047636A2A4604496068984702B070BD11DA010065F70100B3F6010030B585B08DF80D30FF251B0A099C8DF804508DF80E300A259DF820308DF8055033
:406A00008DF807008DF809108DF80B200725000A090A120A8DF806508DF808008DF80A108DF80C208DF80F30656A0C2301AA02496068A84705B030BD65F701002DE9FF419B
:406A400006460A980D4690461F4614F0D5FCFF230B9C8DF8043008238DF807608DF809501E411D4107308DF805008DF806308DF80A5001AA8DF808608DF80B808DF80C708D
:406A8000656A092305496068A847636A0A9A04496068984704B0BDE8F08100BF65F70100B3F60100F7B515460E46074614F0A4FCC4B2304614F0A0FCFF2320448DF80430CA
:406AC00002300B238DF805008DF806306C6A01AA032305496868A0476C6A33463A4603496868A04703B0F0BD65F701003802020073B50C46054614F07FFCFF238DF804305B
:406B000001300F238DF805008DF8063001AA666A032305496068B047636A2A4603496068984702B070BD00BF65F70100B3F6010030B5C5689FB0FF238DF81430B5F1004FE9
:406B40004FF00C030C468DF8163041688378826808D10191009261210D4A0DF1170000F039FE08E00191009202950A4A61210DF1170000F02FFE01308DF815009DF81530BA
:406B8000656A023305AA04496068A8471FB030BD18DA010026DA010065F701002DE9FF4106460A980D4690461F4614F025FC0B9CFF238DF804308DF8076009238DF80950A2
:406BC000073036122D128DF805008DF806308DF80A5001AA8DF808608DF80B808DF80C70656A05496068A847636A0A9A03496068984704B0BDE8F08165F70100B3F6010001
:406C000040EAC30337B543EA820242EA4101104AFF259388069C8DF804301B0A8DF80530D3888DF8005006258DF801508DF806300A251B0A8DF802508DF803108DF807301B
:406C4000656A08236A4603496068A84703B030BD0063002065F701002DE9F04704460E462288E38880881344628886B09BB202440027019192B219460097FFF7B1FEE188D4
:406C80002388A2880B44019600979BB21046FFF7A7FEB4F900A04FF00808BAF1000F37DBE3881FFA8AF5A0882B449BB2A0F10A02194692B201960097FFF792FEE388A0886E
:406CC00062882B449BB20244194692B20196CDF80080FFF785FE23880DF10C09CAEB03032D4A0A21484600F075FDE188A08804312944143808230196CDF80090002209B232
:406D000000B2FFF74BFF6389ED1A0FFA85FAC4E70025A8464FF0080963889D4238DCE3882188A288AFB2194489B23A4492B201F10A0310469BB20196CDF80080FFF750FE3F
:406D4000A288E18823883A4492B20B4410469BB20DF10C0A0196CDF80090FFF741FE2B460D4A0A21504600F035FD2388E188A0881944143138440196CDF800A0082300229E
:406D800009B200B2FFF70AFF25893D442DB2C3E706B0BDE8F08700BF5EFF01009A4238BF8854704770470B68496818472DE9F04F85B09946149B834613F0020001919046D2
:406DC0000E9D0F9C9DF84010119ADDF848C0139E029018D128193027644505D3281903F001074FF0300E0CE01F2CF7D8013400F8017BF1E7B44206D21F2C04D8013400F829
:406E000001EB002FF6D1D80627D55F050BD454B1644501D0B44206D1601E03D0102A0ED1023C02E00446102A0AD1980603D41F2C14D8782209E01F2C10D8582205E0044613
:406E4000022A04D11F2C09D862222A5501341F2C04D830222A55013400E044B1A64204D111B913F00C0F05D0741E1F2C0ED821B12D2209E01F2E344608D8590701D52B223A
:406E800002E01A0702D520222A5501349B07474602D1C8EB040A03E025444FF0000A0CE007EB0A039E42F7D97B1C03933A464B4601992020D847039FF2E754450AEB0702C6
:406EC00007D04B46019915F8010DD8470AF1010AF3E7029B53B1C8EB02039E4206D9541C4B4601992020D8472246F4E7104605B0BDE8F08F2DE9F04190B0169DDDF860E0A3
:406F00001B9F0DB927F010077C0500D5FDB117F0200F4FF0000614BF4FF0370C4FF0570CB5FBFEF40EFB1454B5FBFEF5E4B2092C06F1010694BF303464440DF12008E4B293
:406F4000B04408F8014C1DB1202EE9D100E02E461A9C06970594199CCDF80CE004949DF85C400196029408AC0094FFF71FFF10B0BDE8F0812DE9F04F95B0269D9B46DDE928
:406F80001E8958EA090308BF25F0100592466A0509900A91229E239F02D558EA090326D015F0200F14BF3723572300240B934046494632463B4613F0BBFFD2B2092A8ABF6B
:406FC0000B9B3032D21801340CABD2B2234403F8012C40463B464946324613F0A9FF8046894658EA090303D0202CE0D100E00024259B06950593249B039604939DF8803009
:40700000019402930CAB009352465B460A990998FFF7CCFE15B0BDE8F08F13B50C468DF8070038B14FF0FF3301220DF107016068FDF7A1FF02B010BD2DE9F04F9FB00C9270
:40704000AD4ADDF8A080002918BF02460E910F920025187800283AD0252803F1010607D00C9B2A466C1C0E990F9DA84733462CE033460024184610F8012B19462B2A11D06C
:4070800006D8202A11D0232A32D144F010042DE02D2A04D0302A2BD144F0010426E044F0020423E044F0040420E044F008041DE000F29780252840F090800C9B2A466C1C77
:4070C0000E990F9DA8470B9B01332546C1E70C9B0E999D422CBF03F1FF322A460C9B00200F9CA04728461FB0BDE8F08F0346C1E7A2F13006092E40F248832A2A0CD1D8F80B
:40710000003008F10402002BBCBF5B4244F002040D930146904601E000230D930B782E2B23D14B1C0B934B7844F48064A3F13002092A0FD80B9A4FF000090A200B9212F8F0
:40714000013BA3F13001092912D800FB0939A9F13009F3E72A2B09D1D8F8003008F1040823EAE3798B1C0B9302E00B914FF000090B9B1B786C2B0CD006D8682B10D06A2BCE
:407180001FD144F4007419E0742B15D07A2B13D017E00B9B5B786C2B0ED144F4407408E00B9B5B78682B02D044F0800406E044F0C0040B9B023303E044F480740B9B01333C
:4071C0000B930B9B1878662800F0E88013D858287FF46EAF44F0200436E0462800F0DE806BE7632800F02882642824D062287FF464AF022329E0702800F0AC8206D8692856
:4072000019D06F287FF459AF08231EE0752812D0782819D073287FF450AFB9F1000F18BF4B4608F1040BD8F8008008BF4FF0FF334344474643E2692824F010044FF00A0326
